:100000000C946C000C9494000C9494000C94970A3B
:100010000C94970A0C94970A0C9494000C949400F6
:100020000C9494000C9494000C9494000C94940000
:100030000C9494000C9494000C9494000C949400F0
:100040000C94A3180C9494000C9494000C949400B9
:100050000C9494000C9494000C9494000C949400D0
:100060000C940D070C94940069176C176F17721796
:100070007517781783178617000000080002010023
:100080000003040700000000000000000102040853
:1000900010204080010204081020010204081020F2
:1000A000040404040404040402020202020203031E
:1000B00003030303000000002300260029000000C2
:1000C0000000250028002B0000000000240027006D
:1000D0002A00D6022306500311241FBECFEFD8E01A
:1000E000DEBFCDBF11E0A0E0B1E0E0EDFCE302C077
:1000F00005900D92AE35B107D9F723E0AEE5B1E03A
:1001000001C01D92A833B207E1F710E0C6EDD0E0C0
:1001100004C02297FE010E94711BC23DD107C9F79E
:100120000E94F61A0C945B1E0C940000ECEBF0E0BD
:1001300080818A7B808360E082E10E94F31961E024
:1001400082E10C94BA192F923F924F925F926F9274
:100150007F928F929F92AF92BF92CF92DF92EF9257
:10016000FF920F931F93CF93DF9300D000D0CDB7B2
:10017000DEB760E088E00E94F319209161013091C0
:100180006201409163015091640160916501709139
:100190006601809167019091680101E00E94B01CA6
:1001A00049013A01B62FA72FF82FE92F02E00E944C
:1001B000B01C59016A017B018C019401A3016B2FD2
:1001C0007A2F8F2F9E2F0E94E71C49011A012B01C5
:1001D00089839A832091060130910701409108019B
:1001E0005091090160910A0170910B0180910C01FD
:1001F00090910D0101E00E94B01C39014C835B839A
:10020000B62FA72FF82FE92F02E00E94B01C59014A
:100210006A017B018C0193014C815B816B2F7A2FEA
:100220008F2F9E2F0E94E71C1F921F925101620187
:10023000E980FA8089019A01AB01BC0180EA91E072
:100240000E94AB17209161013091620140916301DE
:100250005091640160916501709166018091670120
:100260009091680101E00E94B01C49013A01B62F4B
:10027000A72FF82FE92F02E00E94B01C59016A0154
:100280007B018C019401A3016B2F7A2F8F2F9E2F5E
:100290000E94E71C49011A012B0189839A8320914E
:1002A00006013091070140910801509109016091C8
:1002B0000A0170910B0180910C0190910D0101E0F8
:1002C0000E94B01C39014C835B83B62FA72FF82FF7
:1002D000E92F02E00E94B01C59016A017B018C01E8
:1002E00093014C815B816B2F7A2F8F2F9E2F0E9461
:1002F000E71C1F92E1E0EF9351016201E980FA806F
:1003000089019A01AB01BC0180EA91E00E94AB1720
:1003100040E060E070E080EA91E00E945A1442E31D
:1003200061E070E080EA91E00E945A1460E070E0C1
:1003300080EA91E00E945E140F900F900F900F9052
:1003400061E088E00F900F900F900F90DF91CF91B8
:100350001F910F91FF90EF90DF90CF90BF90AF90E3
:100360009F908F907F906F905F904F903F902F90D5
:100370000C94F319EF92FF920F931F9362E086E0C3
:100380000E94BA1962E087E00E94BA1960E08DE02D
:100390000E94BA1960E081E10E94BA1961E088E028
:1003A0000E94BA1961E08AE00E94BA1960E088E010
:1003B0000E94F31920E042E060E188E891E00E94A9
:1003C000F0086EE071E088E891E00E94901A41E048
:1003D0006DE088E891E00E94D60869E171E088E864
:1003E00091E00E94901A0E949600E12CF12C870166
:1003F00026E333E14CE951E060E880EA91E00E94B5
:10040000201640E050E060E070E080EA91E00E9459
:10041000C91440E050E061E070E080EA91E00E94A1
:10042000C9140E94A30040E052EC61E070E089E64C
:1004300091E01F910F91FF90EF900C949A0B1F93F6
:10044000CF93DF9300D01F92CDB7DEB7142F29834F
:100450003A835B830E94960041E060E088E891E087
:100460000E94D6086DE171E088E891E00E94901A40
:1004700041E060E088E891E00E94D6082981622F7F
:100480003A81732F812F5B81952F2AE030E040E085
:1004900050E00E942E1BBA01A9012AE030E088E852
:1004A00091E00F900F900F90DF91CF911F910C94DE
:1004B000E81AAF92BF92CF92DF92EF92FF920F9322
:1004C0001F93CF93C82FA0900601B0900701C09052
:1004D0000801D0900901E0900A01F0900B01009111
:1004E0000C0110910D01882349F028EE33E040E023
:1004F00050E060E070E080E090E008C028E13CEF70
:100500004FEF5FEF6FEF7FEF8FEF9FEF0E94E71CE2
:10051000209306013093070140930801509309018D
:1005200060930A0170930B0180930C0190930D016D
:100530000E94A30040E06FE088E891E00E94D608A6
:10054000CC2311F06EE301C06CE388E891E00E94D7
:10055000921A2091060130910701409108015091B3
:10056000090160910A0170910B0180910C01909139
:100570000D010E941F0287E00E94291A892B29F091
:1005800086E00E94291A892B39F461E070E080E04E
:1005900090E00E940A19EFCFCF911F910F91FF9029
:1005A000EF90DF90CF90BF90AF9008957F928F92A1
:1005B0009F92AF92BF92CF92DF92EF92FF920F93F2
:1005C0001F93CF93DF9360E680EA91E00E94280CAE
:1005D00083E0C82E92E0E92E01E020E044E062E1F1
:1005E00088E891E00E948E0920E049E06DE089E60C
:1005F00091E00E946A0B8090060190900701D091D3
:100600000801C0910901B0910A01A0910B01F0917C
:100610000C01E0910D0194014D2F5C2F6B2F7A2F6F
:100620008F2F9E2F03E00E94B01C5401CD2EDC2E94
:10063000EB2EFA2E0F2F1E2F0E94FC1C59016A016F
:100640007B01782E192F03E00E94B01C072D0E9419
:10065000FC1C5401CD2EDC2EEB2EFA2E0F2F1E2F5C
:100660000E94E71C20936101309362014093630173
:1006700050936401609365017093660180936701F4
:1006800090936801DF91CF911F910F91FF90EF90B0
:10069000DF90CF90BF90AF909F908F907F90089504
:1006A00089E691E00C94110B2F923F924F925F924A
:1006B0006F927F928F929F92AF92BF92CF92DF9272
:1006C000EF92FF920F931F93CF93DF9300D000D050
:1006D000CDB7DEB786E00E94291A892B19F480E095
:1006E0000E94590287E00E94291A892B19F481E09F
:1006F0000E94590289E691E00E94400A18161906E4
:100700000CF068C189E691E00E94B4098093600111
:10071000873759F520910601309107014091080172
:100720005091090160910A0170910B0180910C01B7
:1007300090910D01245F314041095109610971090E
:100740008109910920930601309307014093080124
:100750005093090160930A0170930B0180930C017F
:1007600090930D0180E00E945902809160018536CE
:1007700059F52091060130910701409108015091EF
:10078000090160910A0170910B0180910C01909117
:100790000D012C503E4F4F4F5F4F6F4F7F4F8F4F8C
:1007A0009F4F209306013093070140930801509317
:1007B000090160930A0170930B0180930C019093DF
:1007C0000D0181E00E94590240916001413421F401
:1007D00010925F0110925E0180ED840F8A30A0F4C8
:1007E00020915E0130915F015AE0529FC001539FFA
:1007F000900D1124840F911D47FD9A95C0979093F9
:100800005F0180935E01A5C0483509F0A2C060E099
:1008100088E00E94F31961E08AE00E94F3192091B8
:1008200061013091620140916301509164016091D6
:10083000650170916601809167019091680101E006
:100840000E94B01C49013A01B62FA72FF82FE92FBB
:1008500002E00E94B01C59016A017B018C019401E5
:10086000A3016B2F7A2F8F2F9E2F0E94E71C490127
:100870001A012B0189839A8380915E0190915F0117
:100880009C0140E050E060E070E080E090E0A090EB
:100890000601B0900701C0900801D0900901E090D6
:1008A0000A01F0900B0100910C0110910D010E94C2
:1008B000E71C01E00E94B01C39014C835B83B62F1A
:1008C000A72FF82FE92F02E00E94B01C59016A01FE
:1008D0007B018C0193014C815B816B2F7A2F8F2FD1
:1008E0009E2F0E94E71C1F92E2E0EF9351016201EC
:1008F000E980FA8089019A01AB01BC0180EA91E0AC
:100900000E94AB1780915E0190915F019C0140E0D5
:1009100050E060E070E080E090E0A0900601B090D0
:100920000701C0900801D0900901E0900A01F09001
:100930000B0100910C0110910D010E94E71C0E9417
:100940001F026AE271E088E891E00E94901A0F901D
:100950000F90809160018A35E9F560E08AE00E949D
:10096000F31964E170E080E090E00E940A1961E010
:1009700088E00E94F31940E062E070E080EA91E0D4
:100980000E949914209106013091070140910801BD
:100990005091090160910A0170910B0180910C0145
:1009A00090910D010F900F900F900F90DF91CF91CC
:1009B0001F910F91FF90EF90DF90CF90BF90AF907D
:1009C0009F908F907F906F905F904F903F902F906F
:1009D0000C941F020F900F900F900F90DF91CF910A
:1009E0001F910F91FF90EF90DF90CF90BF90AF904D
:1009F0009F908F907F906F905F904F903F902F903F
:100A000008958091570290E020915802821B91092D
:100A100008952091580280915702281750F4E22F30
:100A2000F0E0E75AFD4F808190E02F5F209358025D
:100A300008958FEF9FEF0895E0915802809157023B
:100A4000E81730F4F0E0E75AFD4F808190E0089518
:100A50008FEF9FEF08950895CF92DF92EF92FF926C
:100A60000F931F93CF93DF937C01CB018A012091D9
:100A70003302222389F0EB016B01C40ED51ECC1585
:100A8000DD0569F06991D701ED91FC910190F0814C
:100A9000E02DC7010995F3CF642F0E94E406C80139
:100AA000DF91CF911F910F91FF90EF90DF90CF904A
:100AB0000895CF93DF931F92CDB7DEB7698320915E
:100AC00033022223D1F020913402203240F021E081
:100AD00030E0FC013383228380E090E015C08091F8
:100AE0003502E82FF0E0EA5CFD4F998190838F5F3B
:100AF000809335028093340205C061E0CE010196F7
:100B00000E94E40681E090E00F90DF91CF9108957C
:100B1000FC011382128248EE53E060E070E04483EF
:100B200055836683778382E391E091838083089580
:100B3000109258021092570210923502109234020D
:100B40000C94270681E08093330260935602109242
:100B500035021092340208950F93062F21E0409140
:100B6000340266E372E0809156020E948D06109274
:100B7000350210923402109233020F9108958F9231
:100B80009F92AF92BF92CF92DF92EF92FF920F931C
:100B90001F93CF93DF93EC01F62ED42E4801590119
:100BA000EE2019F10E94A2051E2D143008F013E06A
:100BB0001150B8F0E881F98128E0129FB0011124AA
:100BC000A501940104C056954795379527956A95D8
:100BD000D2F7CA01B9010190F081E02DCE0109954B
:100BE000E7CF60E0CE010E94AC054D2D413208F008
:100BF00040E22C2D69E572E08F2D0E94450610928F
:100C0000580280935702DF91CF911F910F91FF906F
:100C1000EF90DF90CF90BF90AF909F908F9008950E
:100C2000CF92EF920F931F93C22EE12C00E010E0C1
:100C300098010E94BF051F910F91EF90CF900895EA
:100C400061E00C94AC0587E292E00C948805109268
:100C5000E60281E08093E4021092E30261E082E127
:100C60000E94F31961E083E10E94F319E9EBF0E0DF
:100C700080818E7F808380818D7F80838CE58093CF
:100C8000B80085E48093BC000895413208F043C069
:100C90009091E6029111FCCF91E09093E6022093AF
:100CA000E4022FEF209379021092BE02240F2093CA
:100CB000BD029093E5029091E502880F892B809305
:100CC000E5028091E302813061F41092E3028091A9
:100CD000E5028093BB008091BC0083FDF8CF85ECDA
:100CE00001C085EE8093BC008091E6028130E1F383
:100CF0008091BE02841710F44091BE022FEB32E0C7
:100D0000FB01D9018A2F821B841718F48D918193DE
:100D1000F9CF842F089580E008950F93413208F0B1
:100D20004AC09091E6029111FCCF92E09093E602C6
:100D30000093E4029FEF909379021092BE024093D9
:100D4000BD02FB016FEB72E0DB019A2F961B94173B
:100D500018F491919D93F9CF1092E5029091E502DC
:100D6000880F892B8093E5028091E302813061F442
:100D70001092E3028091E5028093BB008091BC0059
:100D800083FDF8CF85EC01C085EE8093BC00222363
:100D900021F08091E6028230E1F3809179028F3F69
:100DA00061F080917902803251F080917902803334
:100DB00041F483E007C081E005C080E003C082E029
:100DC00001C084E00F910895613298F42091E60209
:100DD000243089F460939B02FC018DE992E0DC01F0
:100DE0002A2F281B261718F421912D93F9CF80E084
:100DF000089581E0089582E0089585ED8093BC0018
:100E00008091BC0084FDFCCF1092E602089585EC31
:100E10008093BC001092E60208951F920F920FB6C5
:100E20000F9211242F933F934F935F936F937F9370
:100E30008F939F93AF93BF93EF93FF938091B900EC
:100E4000887F803609F49EC078F5883209F45DC049
:100E500090F4803109F456C038F4882309F4F5C0C1
:100E6000883009F44FC0F5C0883109F44EC0803293
:100E700009F45FC0EEC0803409F46AC058F48033CE
:100E800009F457C0883309F0E4C0809379020E94C6
:100E90000707DFC0803509F44FC0883509F45DC00D
:100EA000883409F0D6C0D3C0883909F4C4C0A8F486
:100EB000883709F467C038F4883609F463C080378E
:100EC00009F460C0C6C0883809F4B5C0803909F497
:100ED0005FC0803809F0BDC05BC0803B09F483C0AF
:100EE00038F4803A09F466C0883A09F47CC0B1C08D
:100EF000803C09F4A4C0883C09F4A1C0883B09F4F3
:100F000087C0A7C08091E50210C09091BE02809179
:100F1000BD02981770F5E091BE0281E08E0F8093BC
:100F2000BE02F0E0E154FD4F80818093BB0085EC70
:100F300083C0809379028BC0E091BE0281E08E0F66
:100F40008093BE028091BB00F0E0E154FD4F8083AE
:100F50009091BE028091BD026BC0E091BE0281E023
:100F60008E0F8093BE028091BB00F0E0E154FD4FF4
:100F700080838091E40281116AC081E08093E30262
:100F800084EA5EC083E08093E60210927A02CFCFBB
:100F900080917A02803208F04EC0E0917A0281E0BE
:100FA0008E0F80937A028091BB00F0E0E558FD4FF0
:100FB0008083BDCF0E94070780917A02803230F48F
:100FC000E0917A02F0E0E558FD4F108260917A02DC
:100FD00070E0E091DF02F091E0028BE792E009958A
:100FE00010927A0236C084E08093E60210929C024E
:100FF00010929B02E091E102F091E202099580914A
:101000009B02811105C081E080939B0210929D029A
:10101000E0919C0281E08E0F80939C02F0E0E35609
:10102000FD4F80818093BB0090919C0280919B0238
:10103000981708F47CCF85E88093BC000AC085EC43
:101040008093BC001092E60204C0109279020E94C4
:10105000FD06FF91EF91BF91AF919F918F917F918D
:101060006F915F914F913F912F910F900FBE0F9015
:101070001F901895CF93DF93EC0160E08E810E9462
:10108000F31981E090E00E94441961E08E810E9492
:10109000F31981E090E00E94441960E08E810E9483
:1010A000F31984E690E0DF91CF910C944419EF920C
:1010B000FF920F931F93CF93DF938C01C0E0D0E09A
:1010C000E62EF12CB7010C2E02C0759567950A9497
:1010D000E2F76170F801EC0FFD1F87810E94F319A0
:1010E0002196C430D10571F7C801DF91CF911F91CE
:1010F0000F91FF90EF900C943A08EF92FF920F93AC
:101100001F93CF93DF938C01C0E0D0E0E62EF12C4B
:10111000B7010C2E02C0759567950A94E2F76170CD
:10112000F801EC0FFD1F87810E94F3192196C8304A
:10113000D10571F7C801DF91CF911F910F91FF90F9
:10114000EF900C943A081F93CF93DF93EC01162F86
:10115000642F8C810E94F3198D818F3F19F060E01C
:101160000E94F3198F85612F84FF06C0CE01DF91A5
:10117000CF911F910C947D0870E084E07595679580
:101180008A95E1F7CE010E945708612FCE01DF91C9
:10119000CF911F910C94570840E00C94A30861E094
:1011A0000E94CC0880ED97E00C944419443008F07C
:1011B00043E0FC012389421710F04FEF420FFC017E
:1011C000E40FF11D2489260F2068622F0C94CC08AF
:1011D000FC016089262F2460208B6C600C94CC0865
:1011E0000F931F93CF93DF93EC01423018F08F855C
:1011F00088608F874B8B1C8A80E48D8B6E8B70E0B0
:10120000605C7F4F6F8B222329F0413019F48F856A
:1012100084608F8761E08C810E94BA198D818F3F35
:1012200019F061E00E94BA1961E08E810E94BA193A
:1012300000E010E08F8584FF03C088E090E002C0EA
:1012400084E090E00817190754F4FE01E00FF11F45
:1012500061E087810E94BA190F5F1F4FEBCF80E5D5
:1012600093EC0E94441960E08C810E94F31960E0C5
:101270008E810E94F3198D818F3F19F060E00E94EA
:10128000F3196F8564FD1DC063E0CE010E9457080D
:1012900084E991E10E94441963E0CE010E9457085D
:1012A00084E991E10E94441963E0CE010E9457084D
:1012B00086E990E00E94441962E0CE010E9457083E
:1012C00016C06062CE010E94CC0884E991E10E94C0
:1012D00044196F856062CE010E94CC0886E990E0D7
:1012E0000E9444196F856062CE010E94CC086F8510
:1012F0006062CE010E94CC0884E0888BCE010E94FF
:10130000E808CE010E94CF0882E0898B66E0CE011A
:10131000DF91CF911F910F910C94CC08CF92EF9257
:101320000F93FC011382128282E491E09183808307
:1013300064838FEF8583468327830087E186C28697
:101340001386148615861686178620E041E060E134
:10135000CF010F91EF90CF900C94F00841E00E94E4
:10136000A30881E090E008952091290330912A0399
:1013700028173907B9F49091E7028091E80298178D
:1013800089F0E091E702F0E0E751FD4F8081209184
:10139000E70230E02F5F3F4F2F7333272093E702A0
:1013A00090E008958FEF9FEF08951F93CF93DF9301
:1013B000DC015C968D919C915D97009749F481E0EA
:1013C00090E013969C938E93129780E090E03BC040
:1013D0005196ED91FC91529750962C915097322F47
:1013E00030951FB75E964C915E9741FB772770F959
:1013F00041FD6095F8944081772311F0422B01C0A4
:1014000043234083EC012197F1F748E0508160FFCE
:1014100002C0522B01C053235083EC012197F1F7F6
:101420006695415099F78081772311F0832301C09D
:10143000822B80831FBF5C968D919C915D97019755
:10144000F1F781E090E0DF91CF911F910895089529
:101450002091290330912A032817390771F49091BC
:10146000E7028091E802981741F0E091E702F0E08E
:10147000E751FD4F808190E008958FEF9FEF089531
:101480002091290330912A032817390771F480919C
:10149000E8022091E70290E0805C9F4F821B910957
:1014A00060E470E00E941A1B089580E090E00895C7
:1014B000E0912903F0912A03E817F90769F4A38959
:1014C000B4899C918589809589238C9310922A03F5
:1014D0001092290381E0089580E00895CF93DF936F
:1014E000EC018A8D9B8D892BF1F0809129039091DD
:1014F0002A038C179D07B9F0009711F00E94580A33
:101500008E8D8E7F8E8F1092E8021092E702D0931C
:101510002A03C0932903EB89FC8980819D89892B4B
:10152000808381E001C080E0DF91CF9108951F9218
:101530000F920FB60F9211242F933F934F935F9307
:101540006F937F938F939F93AF93BF93EF93FF938B
:10155000E0912903F0912A03309709F451C0868D58
:10156000A685B785958581FF04C08C91892329F4D0
:1015700047C08C91892309F043C0A389B4899C9109
:101580008589809589238C93868997890197F1F7BE
:10159000208D318DA685B785758558E040E0C9015D
:1015A0000197F1F7842F90E095958795482F6C91DE
:1015B000672309F04068515091F7868D81FD409571
:1015C0008091E80290E001968F7399272091E702BD
:1015D000281749F0A091E802B0E0A751BD4F4C9305
:1015E0008093E80203C0868D8160868F828D938D03
:1015F0000197F1F7A389B4898C919589892B8C93F4
:10160000FF91EF91BF91AF919F918F917F916F91DA
:101610005F914F913F912F910F900FBE0F901F90B0
:1016200018952AE431E0FC01318320830C94580A98
:101630001F93CF93DF93EC01162F6E8D669561702B
:1016400081E06827812F0E94F31961E0812F0E94B9
:10165000BA19812F90E0FC01E457FF4FE491E88B29
:10166000FC01E056FF4FE491F0E0EE0FFF1FE25463
:10167000FF4F859194919A8B898BDF91CF911F9128
:1016800008951F93CF93DF93EC01162F60E0812F15
:101690000E94BA198E8D81FD04C061E0812F0E94E5
:1016A000F3191C87812F90E0FC01E457FF4FE49170
:1016B000ED87FC01E056FF4FE491F0E0EE0FFF1FD5
:1016C000EC54FF4F859194919F878E87DF91CF9146
:1016D0001F910895FF920F931F93CF93DF93EC0117
:1016E000F62E522F1B821A8208EE13E020E030E023
:1016F0000C831D832E833F838AE491E09983888342
:101700001F8A1E8A198E188E1B8E1A8E1D8E1C8E95
:101710008E8D8E7F50FB81F98E8F642FCE010E94BB
:10172000180B6F2DCE01DF91CF911F910F91FF907C
:101730000C94410BCF93DF93EC019A01AB011B8E0C
:101740001A8E198E188E1F8A1E8A60E47BE48CE440
:1017500090E00E94501BC9012430310520F0B901EE
:101760006350710902C061E070E07D8F6C8FEC8581
:10177000E63108F068C0B901769567956431710566
:1017800018F06351710902C061E070E07F8B6E8BCD
:10179000069718F0C901059702C081E090E0998F83
:1017A000888FC901880F991F820F931F969587957F
:1017B000969587958D30910510F00C9702C081E0C9
:1017C00090E09B8F8A8F20916800E83050F091E084
:1017D000EE3008F490E081E001C0880F9A95EAF7B6
:1017E00001C084E0822B809368002C85283038F07B
:1017F0002E3040F0263148F48CE690E008C08DE6AB
:1018000090E005C08BE690E002C080E090E09C8B09
:101810008B8B283030F481E001C0880F2A95EAF7DD
:101820000DC0822F90E02E3010F4089701C00E9763
:1018300091E001C0990F8A95EAF7892F8D8B8C8DE5
:101840009D8D0197F1F7CE01DF91CF910C946E0A37
:1018500025E0FC0111922A95E9F7FC011582168218
:1018600017821086E258FF4F6083719740E458E773
:101870006DE771E0408351836283738334971182F3
:1018800010823296118210827296108208950F9300
:101890001F93F901413823EC520729EC620721E03C
:1018A0007207C0F49F013327220F331F220F331F0B
:1018B000280F391FD901A359BF4F4D935D936D93E5
:1018C0007C931397319709F054C0FC01E358FF4F04
:1018D00010824FC08A019B010158134C294C3140A2
:1018E0000038134C294C3140D8F49F013327220F84
:1018F000331F220F331F280F391FD901A359BF4FA0
:1019000076956795579547954D935D936D937C9329
:101910001397319771F5FC01E358FF4F20E428C07D
:101920008A019B01015017482349334001151A458C
:1019300022463240F0F49F013327220F331F220F3B
:10194000331F280F391FD901A359BF4F12E07695D5
:101950006795579547951A95D1F74D935D936D937C
:101960007C931397319729F4FC01E358FF4F20E84B
:1019700020831F910F9108952F923F924F925F9273
:101980006F927F928F929F92AF92BF92CF92DF928F
:10199000EF92FF920F931F93CF93DF93CDB7DEB7F4
:1019A000A7970FB6F894DEBF0FBECDBFED82F98AC0
:1019B000088F198F2A8F3B8F4C8F5D8FDBA2CAA2B5
:1019C00089829A82AB82BC82FC01672B19F4E759A9
:1019D000FF4F02C0E559FF4F208131813327220F8D
:1019E000331F220F331F280F391FF901E359FF4F0F
:1019F00080819181A281B3811C012D019C01A201F2
:101A000060E070E080E090E002E00E94B01C5101D4
:101A10006201E12CF12C00E010E00E94FC1C2D87FB
:101A20003E874F87B52FA62FF72FE82F988B6A2F69
:101A30007F2F8E2F05E00E94B01C59016A017B01A7
:101A40008C012D853E854F855B2F6A2F7F2F8E2F32
:101A500098890E94E71C51016201E12CF12C00E001
:101A600010E00E94E71C322E432E542E652E762E57
:101A7000972E882E292EC980DA80EB80FC80FF0CFF
:101A8000CC08DC2C760129813A814B815C816C2D5C
:101A90007C2D8C2D9C2D0FE10E94B01CA12CEAEC1A
:101AA000BE2EFAE9CF2EABE3DA2EE12CF12C00E0CA
:101AB00010E00E94DB1B59016A017B018C01232D80
:101AC000342D452D562D672D792D882D922D0E9470
:101AD000801B0FE10E94CB1C59016A01D601C50190
:101AE000BB0F880B982FDC0189839A83AB83BC835F
:101AF0009501A6016981762F862F962FA32CB42CF1
:101B0000C52CD62CE72CF92C082D122D0E94E71C91
:101B100029833D874E875F87688B7D8B8E8B9F8B5C
:101B20002D813989488D598D6A8D7B8D8C8D9D8D48
:101B30002F3FA7E53A07A7E44A07A8EF5A07ADE009
:101B40006A07710581059105A9F0A0F021153440BF
:101B50004B46544F6441710581059105B9F0B0F0D1
:101B60001D8224E0298B8BE6888F94EF998FA4E166
:101B7000AA8F09C01D82E8E5E98BF7E4F88F08EF2A
:101B8000098F1DE01A8F1B8E1C8E1D8EA980BD84AF
:101B9000CE84DF84E888FD880E891F892D813989EC
:101BA000488D598D6A8D7B8D8C8D9D8D0E940C1C6E
:101BB0002CA33DA34EA35FA32E8F3F8F48A359A311
:101BC0008E8D9F8DA8A1B9A10F97A105B10558F4DD
:101BD0009501A601B701C80104E00E94B01C0E895E
:101BE0000E94FC1C2CC08E8D9F8DA8A1B9A18B35A5
:101BF0009105A105B10558F129813D854E855F8587
:101C000068897D898E899F8902E00E94B01CA98025
:101C1000BD84CE84DF84E888FD880E891F890E94F8
:101C2000FC1C59016A017B01E82F192F04E00E9476
:101C3000B01C0E2F0E94FC1C01E00E94B01C2D83E2
:101C4000398B488F598F6A8F7B8F8C8F9D8F9CAD7E
:101C5000A980BD84CE84DF84E888FD880E891F8931
:101C60002D813989488D598D6A8D7B8D8C8D992375
:101C700009F442C09D8D0E940A1C722E832E942E60
:101C8000B52FA62FF72FE82F592E05E00E94B01C84
:101C9000A72CB82CC92CDB2EEA2EFF2E0E2F152DCB
:101CA0000E94FC1C59016A017B01682E192F06E075
:101CB0000E94B01C062D0E94FC1C03E00E94B01C78
:101CC000A72CB82CC92CDB2EEA2EFF2E0E2F152D9B
:101CD0000E94E71C06E00E94B01CA980BD84CE844F
:101CE000DF84E888FD880E891F890E940C1C2D83E3
:101CF0003E834F83588749C09D8D0E940A1C722ED7
:101D0000832E942EB52FA62FF72FE82F592E05E0FE
:101D10000E94B01CA72CB82CC92CDB2EEA2EFF2E5B
:101D20000E2F152D0E94FC1C59016A017B01682EA3
:101D3000192F06E00E94B01C062D0E94FC1C03E037
:101D40000E94B01CA72CB82CC92CDB2EEA2EFF2E2B
:101D50000E2F152D0E94E71C06E00E94B01CA980E2
:101D6000BD84CE84DF84E888FD880E891F890E94A7
:101D70000C1C2D833E834F835887AD80BE80CF805F
:101D8000D884AB28AC28AD2841F020E4422E22E4D0
:101D9000522E2FE0622E712C04C0412C512C3201A6
:101DA0004394CE8CDF8CE8A0F9A0B7E0CC0CDD1C0E
:101DB000EE1CFF1CBA95D1F7CE8EDF8EE8A2F9A2F9
:101DC000ED80FE800F81188587E0EE0CFF1C001F60
:101DD000111F8A95D1F7E98AFA8A0B8B1C8BC801EF
:101DE000B701A30192010E942E1BCD80DE80EF80FF
:101DF000F88456016701E12CF12C8701AD82BE8287
:101E0000CF82D886E986FA860B871C878E8D9F8DB8
:101E1000A8A1B9A19250A109B109820F931FA41FD3
:101E2000B51FEAA1FBA180839183A283B383C30181
:101E3000B2010E940A1BC988DA88EB88FC88C61A9E
:101E4000D70AE80AF90AC482D582E682F782408678
:101E5000518662867386FCADF1113BC0A980BD84BA
:101E6000CE84DF84E888FD880E891F892D813E811C
:101E70004F81588560E070E080E090E00E94801B18
:101E80001201230151016201E12CF12C00E010E06C
:101E90000E940C1C19012A013B014C01A980BD8440
:101EA000CE84DF84E888FD880E891F892CA13DA19E
:101EB0004EA15FA160E070E080E090E00E94801B96
:101EC00059016A017B018C019101A201B301C40196
:101ED0003BC0AE8CBF8CC8A0D9A0150126019501CE
:101EE000A20160E070E080E090E005E00E94B01C9C
:101EF0006201E12CF12C00E010E00E94FC1C590171
:101F00006A017B01E82F192F06E00E94B01C0E2FFA
:101F10000E94FC1C03E00E94B01C51016201E12CF4
:101F2000F12C00E010E00E94E71C06E00E94B01CCB
:101F300059016A017B018C012D813E814F815885B9
:101F400060E070E080E090E00E94E71CA7960FB68A
:101F5000F894DEBF0FBECDBFDF91CF911F910F91DF
:101F6000FF90EF90DF90CF90BF90AF909F908F90B9
:101F70007F906F905F904F903F902F9008952F9299
:101F80003F924F925F926F927F928F929F92AF9209
:101F9000BF92CF92DF92EF92FF920F931F93CF9356
:101FA000DF93CDB7DEB76C970FB6F894DEBF0FBEE8
:101FB000CDBF09871A872B873C874D875E87762E92
:101FC000672EA982BF86C88AD98AEA8AFB8A9801C5
:101FD0004B855C856D857E85872D962D2115E1ECE1
:101FE0003E07EAE14E07EDE35E07E5E06E077105A7
:101FF0008105910511F008F056C02F37F0EF3F072B
:10200000FAEF4F07F2E05F07610571058105910561
:1020100069F060F02F3F354D41415E4763407105E7
:102020008105910511F008F04AC00CC0F0E8F9876D
:1020300020EF2A873AEF3B8742E04C871D861E86B9
:10204000712C612C940149815F85688979898A891D
:102050009B89A0E00E94051D09F06FC0A984BA8485
:10206000CB84DC84ED84FE84072D162D20E034E043
:102070004BE654EF64E170E080E090E00E940C1CBD
:10208000122FB32FF42FE52FA7E00E94051D21F496
:1020900016E0B0E0F0E0E0E0CF01212E3B2E492E2B
:1020A0005E2E1C8A1FC01986F1ECFA872AE12B8765
:1020B0003DE33C8745E04D871E86712C612C9401E1
:1020C00049815F85688979898A899B89A0E00E9416
:1020D000051D09F035C151E05C8BE4E02E2E312C5A
:1020E000412C512CA201910160E070E0CB01A98448
:1020F000BA84CB84DC84ED84FE84072D162D2982DE
:102100003A834B835C836D837E838F83988760E003
:1021100070E080E090E00E94801B490149835F8766
:10212000688B798B8A8B9B8B10E0C12CD12C76012C
:10213000C39480E090E0DC01A4C01C8AA984BA8426
:10214000CB84DC84ED84FE84072D162D9401498117
:102150005F85688979898A899B890E940C1C222E57
:10216000332E442E552E86E02816310441045104A6
:1021700020F466E0A62EB12C0BC099E0291697E05A
:10218000390641045104D8F048E0A42E57E0B52E9A
:10219000C12CD12CE12CF12C00E010E094014981FC
:1021A0005F85688979898A899B890E940C1C2987A7
:1021B0003A874B875C876D877E87782E692EA98446
:1021C000BA84CB84DC84ED84FE84072D162D940123
:1021D00049815F85688979898A899B890E940A1C5F
:1021E000F22FA32FB42F588F698F7A8F8B8FE92FFF
:1021F00005E00E94B01CAF2EBA2ECB2ED88CE98CF5
:10220000FA8C0B8D1E2F0E94FC1C59016A017B0168
:102210008C8F192F06E00E94B01C0C8D0E94FC1CB4
:1022200003E00E94B01CAF2EBA2ECB2ED88CE98CC6
:10223000FA8C0B8D1E2F0E94E71C06E00E94B01C3A
:10224000A984BA84CB84DC84ED84FE84072D162D0A
:102250000E940C1CF22FE32F8F2F9E2FA42FB52F3F
:1022600011E00097A105B10541F030E4C32E32E43E
:10227000D32E3FE0E32EF12C04C0C12CD12C7601EB
:10228000C394EC89E13089F19C01AD0187E0220F14
:10229000331F441F551F8A95D1F72C8B3D8B4E8BD6
:1022A0005F8BCA01B901A70196010E942E1B97E01E
:1022B000220C331C441C551C9A95D1F782E0381A25
:1022C00041085108220E331E441E551EC701B60197
:1022D0000E940A1B2C893D894E895F89261B370B7A
:1022E000480B590BDA01C9010AC0C12CD12C760167
:1022F000C39480E090E0DC01212C312C2101E9A97C
:10230000FAA9208231824282538284839583A683F4
:10231000B783C086D186E286F386111108C0940186
:1023200049815F85688979898A899B890CC029855B
:102330003A854B855C856D857E85872D962D03C0FE
:1023400051E05C8BFBCE6C960FB6F894DEBF0FBEEF
:10235000CDBFDF91CF911F910F91FF90EF90DF9054
:10236000CF90BF90AF909F908F907F906F905F9035
:102370004F903F902F900895DF92EF92FF920F932E
:102380001F93CF93DF93FB01E080F18002811381E3
:10239000D481C581B681D7809701A8016D2F7C2F8C
:1023A0008B2F9D2D20583A414640510961097109F2
:1023B000810991092F373A41464051056105710560
:1023C0008105910509F098F49701A8016D2F7C2FE4
:1023D0008B2F9D2D07E00E94B01C20833183428308
:1023E0005383648375838683978387E0FDC0970159
:1023F000A8016D2F7C2F8B2F9D2D35534C405109FB
:1024000061097109810991092F3F34434C405105FD
:10241000610571058105910509F098F49701A801FE
:102420006D2F7C2F8B2F9D2D06E00E94B01C2083EA
:10243000318342835383648375838683978386E0E5
:10244000D3C09701A8016D2F7C2F8B2F9D2D3A565D
:102450004841510961097109810991092F3F3946A4
:1024600048415105610571058105910509F098F410
:102470009701A8016D2F7C2F8B2F9D2D05E00E94C9
:10248000B01C2083318342835383648375838683A6
:10249000978385E0A9C09701A8016D2F7C2F8B2F12
:1024A0009D2D345D404351096109710981099109EC
:1024B0002F3F334D4043510561057105810591055D
:1024C00009F098F49701A8016D2F7C2F8B2F9D2D7B
:1024D00004E00E94B01C20833183428353836483D1
:1024E00075838683978384E07FC09701A8016D2F51
:1024F0007C2F8B2F9D2D385A414651096109710956
:10250000810991092F3F374A4146510561057105FF
:102510008105910509F098F49701A8016D2F7C2F92
:102520008B2F9D2D03E00E94B01C208331834283BA
:102530005383648375838683978383E055C09701B3
:10254000A8016D2F7C2F8B2F9D2D3055434C5109A9
:1025500061097109810991092F3F3F44434C51059D
:10256000610571058105910509F098F49701A801AD
:102570006D2F7C2F8B2F9D2D02E00E94B01C20839D
:10258000318342835383648375838683978382E098
:102590002BC09701A8016D2F7C2F8B2F9D2D305ABA
:1025A0004648514061097109810991092F3F3F490E
:1025B00046485140610571058105910509F098F47F
:1025C0009701A8016D2F7C2F8B2F9D2D01E00E947C
:1025D000B01C208331834283538364837583868355
:1025E000978381E001C080E0DF91CF911F910F912F
:1025F000FF90EF90DF900895EF92FF920F931F935B
:10260000CF93DF93C62FE42E890182589F4FFC01A0
:10261000608187E292E00E94A2056C2F87E292E03F
:102620000E945905E801F12CCE01801B910B8E15FB
:102630009F0534F4699187E292E00E945905F4CF36
:1026400087E292E0DF91CF911F910F91FF90EF9081
:102650000C9420062F923F924F925F926F927F923E
:102660008F929F92AF92BF92CF92DF92EF92FF92A2
:102670000F931F93CF93DF93CDB7DEB762970FB65B
:10268000F894DEBF0FBECDBF3C0118012D873E87F9
:102690004F87588B698B7A8B2701FC01E114F10479
:1026A000F9F4E759FF4F80819181880F991F880FB6
:1026B000991F860D971DFC01EB58FF4F808091807C
:1026C000A280B3801F92CE0101966C0171010D852D
:1026D0001E852F85388949895A8960E070E01EC0BF
:1026E000E559FF4F80819181880F991F880F991FAD
:1026F000860D971DFC01EB58FF4F80809180A280D2
:10270000B3801F92FE0131966F0171010D851E8508
:102710002F85388949895A8961E070E0C3010E9498
:10272000BC0C0F9084E190E00E94051B5C018A853F
:10273000F5018083898581838B81837082838A817F
:1027400083838981848349855A856B857C85BCE038
:102750007695679557954795BA95D1F7407F8F81C4
:102760008F70840F85838E8186838D81878341144A
:10277000510451F4950148E06AE1C3010E94FC1242
:10278000F301E75AFF4F0CC04A944528B9F495016C
:1027900048E062E2C3010E94FC12F301EF59FF4FCF
:1027A000208231828D8582839E8593838F85848369
:1027B00098899583898986839A899783C5010E9420
:1027C000071B62960FB6F894DEBF0FBECDBFDF9138
:1027D000CF911F910F91FF90EF90DF90CF90BF901E
:1027E000AF909F908F907F906F905F904F903F90B1
:1027F0002F900895EF92FF920F931F93CF93DF9343
:10280000EC013327220F331F220F331F2C0F3D1FE4
:10281000F901EB58FF4F4083518362837383FE01BC
:10282000E75AFF4F00811181228133814481558114
:1028300066817781E12CF12CCE010E942A13FE01E2
:10284000EF59FF4F008111812281338144815581ED
:1028500066817781EE24E394F12CCE010E942A1345
:10286000DF91CF911F910F91FF90EF9008951F93EB
:10287000CF93DF931F92CDB7DEB7162F82589F4FAD
:10288000FC01608187E292E049830E94A205612FEA
:1028900087E292E00E9459054981642F87E292E025
:1028A0000E94590587E292E00F90DF91CF911F912E
:1028B0000C9420064F776B550C94371461157105F5
:1028C00011F440E204C06130710521F440E861EB8D
:1028D0000C94371408951F93CF93DF93162FEC01B8
:1028E000C258DF4F688187E292E00E94A205612F03
:1028F00087E292E00E94590587E292E00E9420065A
:1029000020E041E0688187E292E00E941006C0E08A
:1029100087E292E00E940105892B31F087E292E084
:102920000E940905C82FF4CF8C2FDF91CF911F9102
:102930000895EF92FF920F931F93CF93DF931F920F
:10294000CDB7DEB77C018B0163E049830E946B1435
:10295000B80177274981413051F441E050E0062E1B
:1029600001C0440F0A94EAF74095482307C041E0AC
:1029700050E001C0440F6A95EAF7482B63E0C701B5
:102980000F90DF91CF911F910F91FF90EF900C94DA
:102990003714EF92FF920F931F93CF93DF931F9201
:1029A000CDB7DEB78C01262F7A01205F622F2983F5
:1029B0000E946B14482F4C7F298182E0E816F104B5
:1029C00049F0E3E0EE16F10439F0EA94EF2829F437
:1029D000416003C0426001C04360622FC8010F9094
:1029E000DF91CF911F910F91FF90EF900C943714CE
:1029F000DF92EF92FF920F931F93CF93DF93EC013F
:102A00007B018A0180E1D82ED60E6D2DCE010E9469
:102A10006B140115110511F48F7D04C001301105EF
:102A200009F48062482F6D2DCE010E943714F70102
:102A3000FF27EE0FFF1FEC0FFD1F12870187DF91AD
:102A4000CF911F910F91FF90EF90DF900895EF923B
:102A5000FF920F931F93CF93DF93EC0140E860E167
:102A60000E94371440E861E1CE010E94371440E82B
:102A700062E1CE010E94371440E863E1CE010E947A
:102A8000371440E864E1CE010E94371440E865E164
:102A9000CE010E94371440E866E1CE010E9437144F
:102AA00040E867E1CE010E9437144CE060E1CE01BE
:102AB0000E9437144CE061E1CE010E9437144CE0D3
:102AC00062E1CE010E9437144CE063E1CE010E9426
:102AD00037144CE064E1CE010E9437144CE065E10C
:102AE000CE010E9437144CE066E1CE010E943714FB
:102AF0004CE067E1CE010E943714E12CF12C00E09C
:102B000010E22FE530EA42E150E060E070E0CE01F3
:102B10000E942A13EE24E394F12C2FE530EA42E1DF
:102B200050E060E070E0CE010E942A131A861986F8
:102B30001C861B861E861D86188A1F861A8A198A7D
:102B40001C8A1B8A81E090E09E8B8D8B988F8F8BE7
:102B500040E050E060E070E0CE010E94F81440E0F8
:102B600050E061E070E0CE010E94F81440E050E0D7
:102B700062E070E0CE010E94F81440E050E063E0B3
:102B800070E0CE010E94F81440E050E064E070E094
:102B9000CE010E94F81440E050E065E070E0CE0104
:102BA0000E94F81441E050E066E070E0CE010E941F
:102BB000F81441E050E067E070E0CE010E94F814A4
:102BC00040E062EACE010E94371440E063EACE01A1
:102BD0000E94371440E064EACE010E94371460E09E
:102BE00070E0CE010E945E1440E861EBCE010E94CD
:102BF00037148E01E12CF12CF801118E128E138EF8
:102C0000148E158E168E178E10A240E0B701CE01DD
:102C10000E949914FE01EE0DFF1DE158FF4F108236
:102C2000FFEFEF1AFF0A085F1F4F88E0E816F10474
:102C300019F7DF91CF911F910F91FF90EF900895B9
:102C40007F928F929F92AF92BF92CF92DF92EF923C
:102C5000FF920F931F93CF93DF93EC01762E4901E0
:102C60005A016701780187E292E00E949805FE010F
:102C7000E258FF4F608187E292E00E94A20587E25E
:102C800092E00E942006811136C060E0CE010E94D1
:102C90006B1490E0880F892F881F990B0197A9F377
:102CA000472D407C426167EBCE010E9437148114AE
:102CB0009104A104B10441F020E030E0B501A40189
:102CC000CE010E94470C0BC080E498E7ADE7B1E06D
:102CD000FE01E359FF4F80839183A283B38320E0F9
:102CE00030E0B701A601CE010E94FA13CE010E9486
:102CF000271581E001C080E0DF91CF911F910F91F6
:102D0000FF90EF90DF90CF90BF90AF909F908F900B
:102D10007F900895EF92FF921F93CF93DF931F92BE
:102D2000CDB7DEB77C01162F105F612F49830E945B
:102D30006B144981413019F4482F406402C0482F78
:102D40004F7B612FC7010F90DF91CF911F91FF90B3
:102D5000EF900C943714CF92DF92FF920F931F9352
:102D6000CF93DF9300D0CDB7DEB78C016B01683015
:102D7000710528F4FB01EA5AFE4FF08001C0F12CE6
:102D80006F2DC8012A8349830E946B142A814981CF
:102D900096E0C916D1042CF48378222371F08C605C
:102DA0000CC0F6E0CF16D10419F4887F842B0AC03A
:102DB00097E0C916D10431F48F78E0E14E9F90017D
:102DC0001124822B482F6F2DC8010F900F90DF9197
:102DD000CF911F910F91FF90DF90CF900C943714FB
:102DE0003F924F925F926F927F928F929F92AF929B
:102DF000BF92CF92DF92EF92FF920F931F93CF93E8
:102E0000DF93CDB7DEB760970FB6F894DEBF0FBE85
:102E1000CDBF3C012B01A982BA82CB82DC82ED823C
:102E2000FE820F83188729873A874B875C87FCA02F
:102E3000EDA0DA2CAC2CCD803E80902E89859A8531
:102E4000AB85BC858D879E87AF87B88B84E190E08A
:102E50000E94051B8C0195E0941588F1EE85D80140
:102E6000EC93FD851196FC93642D660F660F660F3B
:102E7000645DC3010E946B148C7F9A2D9370892B23
:102E8000D80112968C9312971396BC9213971496AE
:102E9000DC928D859E85AF85B889FCE0B695A795B7
:102EA00097958795FA95D1F7807F992D9F70980F08
:102EB000F80195833682DC2CC78248E001C040E0EF
:102EC000F8E04F16510468F5F201EC5CFF4F0C94EA
:102ED0006F1B98016AE20EC0980162E30BC0980173
:102EE0006AE308C0980162E405C098016AE402C080
:102EF000980162E5C3010E94FC12482DB201C30192
:102F00000E948A1608C04D2D6AE502C04D2D6BE562
:102F1000C3010E9437142E2D4F2DB201C3010E9410
:102F2000AB16C80160960FB6F894DEBF0FBECDBFDA
:102F3000DF91CF911F910F91FF90EF90DF90CF9095
:102F4000BF90AF909F908F907F906F905F904F90C9
:102F50003F900C94071B2F923F924F925F926F927B
:102F60007F928F929F92AF92BF92CF92DF92EF9219
:102F7000FF920F931F93CF93DF93CDB7DEB7659783
:102F80000FB6F894DEBF0FBECDBF3C01802F0D877A
:102F9000912F1E87E22F2F87F32F388BA42F498B79
:102FA000B52F5A8B162F6B8B072F7C8B3E2C2F2C1B
:102FB0004AA45BA49C01AF01BD01812F902FAFEF0C
:102FC0000E94F01C2E373A414640510561057105BB
:102FD0008105910509F058F480E88D878AE18E8794
:102FE00086E08F87188A198A1A8A1B8A1C8A2D857F
:102FF0003E854F85588969897A898B899C892115F5
:10300000314C4A415D43654071058105910569F088
:1030100060F01D8681EC8E878AE18F878DE3888B37
:1030200085E0898B1A8A1B8A1C8AD201BB2713E090
:10303000AA0FBB1F1A95E1F7A60DB71DFD017996E2
:103040008D8559968C938E8581838F85828388891F
:103050008383898984838A8985838B8986838C8904
:103060008783F201EE0FFF1FE60DF71DE184F28466
:1030700084019501A601632D722DC3010E942A13BC
:1030800041E0B201C3010E949914BE01635F7F4F0A
:10309000C3010E94BC118D8B0D851E852F8538893B
:1030A00049895A896B897C89CE0101969F938F93B8
:1030B000E32CF22CC3010E94BF0F882483940F904D
:1030C0000F902D853E854F85588969897A898B892E
:1030D0009C892F3F354D41415E4763407105810515
:1030E000910509F008F4812C8F928D898F93A98026
:1030F000BA80CB80DC80ED80FE800F811885298529
:103100003A854B855C85B201C3010E94F0160F9091
:103110000F9080E065960FB6F894DEBF0FBECDBF6E
:10312000DF91CF911F910F91FF90EF90DF90CF90A3
:10313000BF90AF909F908F907F906F905F904F90D7
:103140003F902F9008951F920F920FB60F92112467
:103150002F933F938F939F93AF93BF9380912C03B3
:1031600090912D03A0912E03B0912F0330912B034A
:1031700026E6230F2D3728F029EE230F0196A11DF7
:10318000B11D20932B0380932C0390932D03A093C8
:103190002E03B0932F038091300390913103A091BF
:1031A0003203B09133030196A11DB11D809330030A
:1031B00090933103A0933203B0933303BF91AF9147
:1031C0009F918F913F912F910F900FBE0F901F9065
:1031D00018959FB7F8944091300350913103609156
:1031E00032037091330386B5A89B06C08F3F21F050
:1031F0004F5F5F4F6F4F7F4F9FBF2227342F452F69
:10320000562F280F311D411D511DA3E0B0E00E9433
:10321000751B08958F929F92AF92BF92CF92DF92CB
:10322000EF92FF926B017C010E94E9184B015C0157
:10323000C114D104E104F104F1F00E94091B0E94C1
:10324000E918681979098A099B09683E7340810564
:10325000910570F321E0C21AD108E108F10888EE67
:10326000880E83E0981EA11CB11CC114D104E10496
:10327000F10429F7DDCFFF90EF90DF90CF90BF9062
:10328000AF909F908F900895000000000000000014
:103290008230910550F09C01220F331F220F331F03
:1032A0000797820F931F0197F1F70895789484B5DB
:1032B000826084BD84B5816084BD85B5826085BD32
:1032C00085B5816085BDEEE6F0E080818160808318
:1032D000E1E8F0E0108280818260808380818160FB
:1032E0008083E0E8F0E0808181608083E1EBF0E0C2
:1032F000808184608083E0EBF0E080818160808366
:10330000EAE7F0E08081846080838081826080834E
:103310008081816080838081806880831092C10079
:103320000895833081F028F4813099F08230A1F043
:1033300008958730A9F08830B9F08430D1F48091B5
:1033400080008F7D03C0809180008F778093800004
:10335000089584B58F7702C084B58F7D84BD0895AC
:103360008091B0008F7703C08091B0008F7D8093F3
:10337000B0000895CF93DF9390E0FC01E457FF4F36
:103380002491FC01E056FF4F8491882349F190E09D
:10339000880F991FFC01E853FF4FA591B491825407
:1033A0009F4FFC01C591D4919FB7611108C0F8945B
:1033B0008C91209582238C93888182230AC062306D
:1033C00051F4F8948C91322F309583238C9388811B
:1033D000822B888304C0F8948C91822B8C939FBF9E
:1033E000DF91CF9108950F931F93CF93DF931F9297
:1033F000CDB7DEB7282F30E0F901E858FF4F8491B0
:10340000F901E457FF4F1491F901E056FF4F049181
:103410000023C9F0882321F069830E9491196981F2
:10342000E02FF0E0EE0FFF1FE254FF4FA591B491A3
:103430009FB7F8948C91611103C01095812301C04E
:10344000812B8C939FBF0F90DF91CF911F910F9194
:103450000895CF93DF93282F30E0F901E858FF4F0C
:103460008491F901E457FF4FD491F901E056FF4FE1
:10347000C491CC2391F081110E949119EC2FF0E0BE
:10348000EE0FFF1FEC54FF4FA591B4912C912D230B
:1034900081E090E021F480E002C080E090E0DF91E4
:1034A000CF910895CF92DF92EF92FF920F931F93E7
:1034B000CF93DF937C016A01EB0100E010E00C1573
:1034C0001D0571F06991D701ED91FC910190F0819A
:1034D000E02DC7010995892B19F00F5F1F4FEFCF22
:1034E000C801DF91CF911F910F91FF90EF90DF9076
:1034F000CF9008956115710581F0DB010D900020DA
:10350000E9F7AD0141505109461B570BDC01ED9124
:10351000FC910280F381E02D099480E090E0089511
:103520000C947A1ADC01ED91FC910190F081E02D70
:1035300009948F929F92AF92BF92DF92EF92FF9287
:103540000F931F93CF93DF93CDB7DEB7A1970FB63D
:10355000F894DEBF0FBECDBF7C01F42FD52ECB017A
:1035600019A2223008F42AE08E010F5D1F4F822E2F
:10357000912CA12CB12C6F2F7D2DA50194010E94BF
:103580002E1BF22FD32ECA01015011096A3014F4F8
:10359000E0E301C0E7E3E60FD801EC93232B242BF3
:1035A000252B49F7B801C7010E947A1AA1960FB6D8
:1035B000F894DEBF0FBECDBFDF91CF911F910F9169
:1035C000FF90EF90DF90BF90AF909F908F90089505
:1035D0002115310541F4DC01ED91FC910190F08160
:1035E000E02D642F09940C94991A08950E9456199D
:1035F0000E94F51A0E94BA01C0E0D0E00E94540374
:103600002097E1F30E940000F9CF0C94341D0C9434
:10361000CC1D0895DB018F939F930E94751BBF9172
:10362000AF91A29F800D911DA39F900DB29F900D11
:103630001124089597FB072E16F4009407D077FD08
:1036400009D00E94111D07FC05D03EF4909581958C
:103650009F4F0895709561957F4F0895A1E21A2EAE
:10366000AA1BBB1BFD010DC0AA1FBB1FEE1FFF1F26
:10367000A217B307E407F50720F0A21BB30BE40B76
:10368000F50B661F771F881F991F1A9469F76095BD
:103690007095809590959B01AC01BD01CF01089577
:1036A000052E97FB1EF400940E94671B57FD07D060
:1036B0000E942E1B07FC03D04EF40C94671B509500
:1036C0004095309521953F4F4F4F5F4F089590950E
:1036D0008095709561957F4F8F4F9F4F0895EE0FA6
:1036E000FF1F0590F491E02D09940E94251DA59FD0
:1036F000900DB49F900DA49F800D911D11240895ED
:10370000DF93CF931F930F939A9DF02D219FF00D80
:103710008B9DF00D8A9DE02DF10D039FF00D029F12
:10372000E00DF11D4E9DE00DF11D5E9DF00D4F9DD4
:10373000F00D7F936F93BF92AF925F934F93D5013C
:103740000E94251D8B01AC01D7010E94251DEB01B4
:10375000E80FF91FD6010E94D01B2F913F91D6018F
:103760000E94251DC60FD71FE81FF91FAF91BF91FB
:103770000E94D01B2F913F910E94251DC60FD71F7D
:10378000E81FF91FD6010E94251DE60FF71F9801BB
:10379000BE01CF0111240F911F91CF91DF910895A8
:1037A0000E94251D460F571FC81FD91F08F43196C8
:1037B0000895689401C0E894F92FF12B12F00C944D
:1037C0000D1CA0E0B0E0E7EEFBE10C947F1C092E9D
:1037D000059422F40E94691C112392F4F0E80F264C
:1037E000FFEFE094F09400951095B094C094D094BD
:1037F000A194BF0ACF0ADF0AEF0AFF0A0F0B1F0BC3
:103800000E94181C07FC0E94691CCDB7DEB7ECE0D3
:103810000C949B1C689401C0E8948F929F92CF9364
:10382000DF930E94181CDF91CF919F908F90089595
:1038300088249924F401E401B0E49F93AA279A15FF
:103840008B049C04ED05FE05CF05D007A10798F475
:10385000AD2FDC2FCF2FFE2FE92D982C892E982FFE
:10386000872F762F652F542F432F322F2227B850C2
:1038700031F7BF9127C01B2EBF91BB27220F331FEB
:10388000441F551F661F771F881F991F881C991C8E
:10389000EE1FFF1FCC1FDD1FAA1FBB1F8A149B0436
:1038A000EC05FD05CE05DF05A007B10748F08A1835
:1038B0009B08EC09FD09CE09DF09A00BB10B2160C3
:1038C0001A94E1F62EF49401AF01BE01CD01000C73
:1038D0000895609570958095909530954095509598
:1038E00021953F4F4F4F5F4F6F4F7F4F8F4F9F4FF0
:1038F00008952F923F924F925F926F927F928F9294
:103900009F92AF92BF92CF92DF92EF92FF920F936E
:103910001F93CF93DF93CDB7DEB7CA1BDB0B0FB678
:10392000F894DEBF0FBECDBF09942A883988488835
:103930005F846E847D848C849B84AA84B984C884CB
:10394000DF80EE80FD800C811B81AA81B981CE0FC2
:10395000D11D0FB6F894DEBF0FBECDBFED010895A7
:103960000F93083090F0982F872F762F652F542FC4
:10397000432F322F22270850F4CF220F331F441F2A
:10398000551F661F771F881F991F0A95B2F70F9161
:10399000089597FB10F8169400080F93083098F0DC
:1039A0000850232F342F452F562F672F782F892F1C
:1039B000902DF4CF059497958795779567955795B2
:1039C0004795379527950A95AAF70F9108952A0DDF
:1039D0003B1D4C1D5D1D6E1D7F1D801F911F089599
:1039E0000024A7FD00942A0F301D401D501D601DAE
:1039F000701D801D901D08952A193B094C095D0911
:103A00006E097F09800B910B08950024A7FD009497
:103A10002A173005400550056005700580059005A2
:103A20000895AA1BBB1B51E107C0AA1FBB1FA61705
:103A3000B70710F0A61BB70B881F991F5A95A9F757
:103A400080959095BC01CD010895A29FB001B39FD0
:103A5000C001A39F700D811D1124911DB29F700D97
:103A6000811D1124911D0895CF93DF93823091051C
:103A700010F482E090E0E0913603F091370320E00B
:103A800030E0A0E0B0E0309739F140815181481733
:103A90005907B8F04817590771F48281938110973C
:103AA00029F013969C938E9312972CC09093370312
:103AB0008093360327C02115310531F04217530793
:103AC00018F0A901DB0101C0EF019A01BD01DF017E
:103AD0000280F381E02DD7CF21153105F9F0281BA5
:103AE000390B2430310580F48A819B816115710581
:103AF00021F0FB019383828304C09093370380936A
:103B00003603FE01329644C0FE01E20FF31F81939B
:103B1000919322503109398328833AC0209134038C
:103B200030913503232B41F42091020130910301A0
:103B3000309335032093340320910001309101012B
:103B40002115310541F42DB73EB740910401509144
:103B50000501241B350BE0913403F0913503E21786
:103B6000F307A0F42E1B3F0B2817390778F0AC01A0
:103B70004E5F5F4F2417350748F04E0F5F1F50937D
:103B80003503409334038193919302C0E0E0F0E069
:103B9000CF01DF91CF910895CF93DF93009709F480
:103BA00087C0FC01329713821282C0913603D091F4
:103BB0003703209781F420813181280F391F8091AC
:103BC0003403909135038217930779F5F093350309
:103BD000E09334036DC0DE0120E030E0AE17BF0794
:103BE00050F412964D915C9113979D01411551052A
:103BF00009F1DA01F3CFB383A28340815181840FAD
:103C0000951F8A179B0771F48D919C911197840FD2
:103C1000951F02969183808312968D919C911397A4
:103C2000938382832115310529F4F0933703E093C0
:103C300036033EC0D9011396FC93EE9312974D9133
:103C40005D91A40FB51FEA17FB0779F4808191817C
:103C5000840F951F0296D90111969C938E938281B1
:103C6000938113969C938E931297E0E0F0E08A8103
:103C70009B81009719F0FE01EC01F9CFCE0102966D
:103C800028813981820F931F2091340330913503AD
:103C90002817390769F4309729F4109237031092E6
:103CA000360302C013821282D0933503C0933403CB
:103CB000DF91CF91089510E0C6EDD0E004C0FE0181
:103CC0000E94711B2296C83DD107C9F7F894FFCF17
:103CD000000038038000A085630800000000514305
:103CE0005820437573746F6D005E5F5E0020202066
:103CF00020202020202020202000205458000000D8
:103D0000000059052C05010509051C052B050000BF
:103D10000000AE09521A00000000D509521A400AEC
:0E3D2000B409280A270A2C343C444C545C5C3D
:00000001FF
